:020000040000fa
:080000000001040000000000f3
:020000040000fa
:04000800ea03000007
:020000040000fa
:04000c00ea03000003
:020000040000fa
:04001000ea030000ff
:020000040000fa
:04001400ea030000fb
:020000040000fa
:04001800ea030000f7
:020000040000fa
:04001c00ea030000f3
:020000040000fa
:04002000ea030000ef
:020000040000fa
:04002400ea030000eb
:020000040000fa
:04002800ea030000e7
:020000040000fa
:04002c00ea030000e3
:020000040000fa
:04003000ea030000df
:020000040000fa
:04003400ea030000db
:020000040000fa
:04003800ea030000d7
:020000040000fa
:04003c00ea030000d3
:020000040000fa
:04004000ea030000cf
:020000040000fa
:04004400ea030000cb
:020000040000fa
:04004800ea030000c7
:020000040000fa
:04004c00ea030000c3
:020000040000fa
:04005000ea030000bf
:020000040000fa
:04005400ea030000bb
:020000040000fa
:04005800ea030000b7
:020000040000fa
:04005c00ea030000b3
:020000040000fa
:04006000ea030000af
:020000040000fa
:04006400ea030000ab
:020000040000fa
:04006800c8010000cb
:020000040000fa
:04006c00ea030000a3
:020000040000fa
:04007000ea0300009f
:020000040000fa
:04007400ea0300009b
:020000040000fa
:04007800ea03000097
:020000040000fa
:04007c00ea03000093
:020000040000fa
:04008000ea0300008f
:020000040000fa
:040084006002000016
:020000040000fa
:04008800ea03000087
:020000040000fa
:04008c00ea03000083
:020000040000fa
:04009000ea0300007f
:020000040000fa
:04009400ea0300007b
:020000040000fa
:04009800ea03000077
:020000040000fa
:04009c00ea03000073
:020000040000fa
:0400a000ea0300006f
:020000040000fa
:0400a400ea0300006b
:020000040000fa
:0400a800ea03000067
:020000040000fa
:0400ac00ea03000063
:020000040000fa
:0400b000ea0300005f
:020000040000fa
:0400b400ea0300005b
:020000040000fa
:0400b800fa02000048
:020000040000fa
:0400bc0046030000f7
:020000040000fa
:0400c000ea0300004f
:020000040000fa
:0400c400ea0300004b
:020000040000fa
:0400c800ea03000047
:020000040000fa
:0400cc00920300009b
:020000040000fa
:0400d000ea0300003f
:020000040000fa
:0400d400ea0300003b
:020000040000fa
:0400d800ea03000037
:020000040000fa
:04010800ea03000006
:020000040000fa
:04010c00ea03000002
:020000040000fa
:04011000ea030000fe
:020000040000fa
:04011400ea030000fa
:020000040000fa
:04011800ea030000f6
:020000040000fa
:04011c00ea030000f2
:020000040000fa
:04012000ea030000ee
:020000040000fa
:04012400ea030000ea
:020000040000fa
:04012800ea030000e6
:020000040000fa
:04012c00ea030000e2
:020000040000fa
:04013000ea030000de
:020000040000fa
:04013400ea030000da
:020000040000fa
:04013800ea030000d6
:020000040000fa
:04013c00ea030000d2
:020000040000fa
:04014000ea030000ce
:020000040000fa
:04014400ea030000ca
:020000040000fa
:04014800ea030000c6
:020000040000fa
:04014c00ea030000c2
:020000040000fa
:04015000ea030000be
:020000040000fa
:04015400ea030000ba
:020000040000fa
:04015800ea030000b6
:020000040000fa
:04015c00ea030000b2
:020000040000fa
:04016000ea030000ae
:020000040000fa
:04016400ea030000aa
:020000040000fa
:04016800ea030000a6
:020000040000fa
:04016c00ea030000a2
:020000040000fa
:04017000ea0300009e
:020000040000fa
:04017400ea0300009a
:020000040000fa
:04017800ea03000096
:020000040000fa
:04017c00ea03000092
:020000040000fa
:04018000ea0300008e
:020000040000fa
:04018400ea0300008a
:020000040000fa
:04018800ea03000086
:020000040000fa
:04018c00ea03000082
:020000040000fa
:04019000ea0300007e
:020000040000fa
:04019400ea0300007a
:020000040000fa
:04019800ea03000076
:020000040000fa
:04019c00ea03000072
:020000040000fa
:0401a000ea0300006e
:020000040000fa
:0401a400ea0300006a
:020000040000fa
:0401a800ea03000066
:020000040000fa
:0401ac00ea03000062
:020000040000fa
:0401b000ea0300005e
:020000040000fa
:0401b400ea0300005a
:020000040000fa
:0401b800ea03000056
:020000040000fa
:0401bc00ea03000052
:020000040000fa
:0401c000ea0300004e
:020000040000fa
:0401c400ea0300004a
:020000040000fa
:0401c800ea03000046
:020000040000fa
:0401cc00ea03000042
:020000040000fa
:0401d000ea0300003e
:020000040000fa
:0401d400ea0300003a
:020000040000fa
:0401d800ea03000036
:020000040000fa
:10020000ef8220000e7f22000e0188000000000017
:10021000000020000000e000020032000001200089
:1002200020028800140007006c0107000000e000b5
:1002300003003a00a0642000010020000200370003
:100240000000200001002000810f7000010032003a
:1002500014000700000020000000e000020032004f
:10026000000002000000000008040200000000007e
:100270000040da000000fe004440a9008001200098
:100280000000e0000300320000002000a001880010
:100290004440a800000006008a1f78008b1f7800e9
:1002a0000000060091018800800478000000eb0047
:1002b0001a003700e284440032a0b4009905ba0065
:1002c000e284440032a0b4009906ba00e2844400fb
:1002d00032a0b4000006eb00476fde00fd07b2005d
:1002e000636ce10003003a00ebff07000000eb0045
:1002f0000a003700606ce10004003a00005deb008a
:100300008b05e900fdff3e00040037006168e10055
:10031000010032000086eb000b00070019c7ba008d
:100320001905ba000e04e00003003a000a00e000dc
:10033000e0ff3a0000000600fe07b2009e018800c0
:100340008a047800f5ff3700395dba008b05e900b3
:100350000c003200295dba008b05e900080032006c
:100360000c00e00003003a00e284440032a0b40034
:10037000f5ff370019ddba008b05e900faff3a00f6
:100380008904e800e184440032a0b40000000600c3
:100390003600f800809fbe00829fbe00849fbe0092
:1003a000869fbe003400f80000002000a0018800f5
:1003b0000400fa0010002000004088002040800067
:1003c0000000e00003003400204080000000e9004d
:1003d0002040880000c3b300004f780000c3b30082
:1003e000104798000040eb00204798001e4078001e
:1003f0008041780022408000706626000090b9009d
:10040000c288de004f90de0000805000004078007f
:1004100000c04100004f78001e409000004278006c
:1004200021408000706626000089b9004299de00f4
:100430004f88de00000051006a01b9000200780018
:1004400000805000004078000040420010479800b3
:10045000a0168000004078006140600000c0ea0003
:10046000614060000080fb0061006000a216800017
:10047000e1ff2f008100610001007000a0168800dc
:100480008000eb000000eb00f5010700003f2800b2
:10049000ce0107000e007800cc0107008600a900fd
:1004a0000080fa003400f9004f03be004f02be0086
:1004b0004f01be004f00be003600f90000400600ac
:1004c0003600f800809fbe00829fbe00849fbe0061
:1004d000869fbe003400f80000002000a0018800c4
:1004e0000400fa0010002000004088002040800036
:1004f000fe0f500003003c00204080000000e80098
:100500002040880000c3b300004f780000c3b30050
:10051000104798000040eb00204798001e407800ec
:100520008041780022408000706626000090b9006b
:10053000c288de004f90de0000805000004078004e
:1005400000c04100004f78001e409000004278003b
:1005500021408000706626000089b9004299de00c3
:100560004f88de00000051006a01b90002007800e7
:100570000080500000407800004042001047980082
:10058000a01680000000d1006140600000c0ea00b9
:10059000614060000080fb006100600000004000de
:1005a000a2168000d1ff2f008100610001007000c1
:1005b000a01688008000eb000000eb00a8010700f7
:1005c000003f2800810107000e0078007f0107002e
:1005d00086e0a9000080fa003400f9004f03be0055
:1005e0004f02be004f01be004f00be003600f900b2
:1005f000004006003600f800809fbe00829fbe00cb
:10060000849fbe00869fbe003400f80000002000da
:10061000a00188000000fa00210020000000eb008b
:100620008f010700903f280068010700f03f280075
:1006300066010700a01680004200de0061406000f5
:1006400000c0ea00614060000080fb0061006000c3
:100650004200dd00a2168000b1ff2f008100610082
:1006600001007000a01688008880a9000080fa00b0
:100670003400f9004f03be004f02be004f01be0020
:100680004f00be003600f900004006003600f800ba
:10069000809fbe00829fbe00849fbe00869fbe00da
:1006a0003400f80000002000a00188000000fa00db
:1006b000210020000000eb0069010700903f2800a6
:1006c000420107003040280040010700a0168000ca
:1006d0004300de006140600000c0ea00614060004d
:1006e0000080fb00610060004300dd00a216800076
:1006f00071ff2f008100610001007000a0168800ca
:1007000088a0a9000080fa003400f9004f03be0061
:100710004f02be004f01be004f00be003600f90080
:1007200000400600809fbe003400f800000020005a
:10073000a00188000400fa0010408000f30f500070
:10074000010034000228ef000000eb00000f7800e9
:100750001040800080004000608020000080400049
:1007600090007800e0ff2f000080600010079800e4
:10077000004080000000e0000a0032001e009000ef
:100780000000a0001007980021408000f00f20001a
:1007900000806000c200dd0000702000008f70004b
:1007a0000028ef001e009000c01288001e00780094
:1007b000d0128800104080000000e800104088003f
:1007c0008920a9000080fa003400f9004f00be0023
:1007d000004006000040da000000fe0000000500b6
:020000040000fa
:1007e000564f00004c5500004d4500003a200000d7
:1007f000005300004f4e00003a200000004f000060
:1008000046460000004f00004e200000200000007f
:020000040000fa
:100810000400fa00310007005700070077000700c6
:100820000a0107008000eb000000eb000c0107004c
:1008300000c3b300004f780000c3b3001047980016
:100840000040eb00204798001e407800804178006f
:1008500022408000706626000090b900c288de0049
:100860004f90de00008050000040780000c0410042
:10087000004f78001e409000004278002140800028
:10088000706626000089b9004299de004f88de00bc
:10089000000051006a01b900020078000080500099
:1008a000004078000040420010479800003f2800b8
:1008b000c60007000e007800c400070021002000d9
:1008c0000000eb00e6000700903f2800bf00070093
:1008d000f03f2800bd000700ffff37000000fa00ce
:1008e000d202a900d222a900d242a900d262a90054
:1008f0008220a800e104800080ff2f0000806000bb
:100900000000a000e00488008600a9008e00a80076
:100910008240a800f1048000f0ff28000080600001
:1009200000c0a000f004880086e0a9008ee0a800c6
:100930008260a8003105800080ff2f0000806000e9
:100940000000a000300588008880a9009080a800e1
:100950008280a80031058000f0f82f000080600040
:100960000040a0003005880088a0a90090a0a80041
:100970000080fa00000006000000fa00e922a8004a
:10098000e522a90041118000c0ff2f000080600017
:100990000000a0004011880040118000c001b30099
:1009a0004011880028c2a9002902a9002942a900f3
:1009b00028a2a800e922a90027e2a8000080fa00e6
:1009c000000006000400fa00100798000000eb0089
:1009d000000f780003003700270109000000000025
:1009e0001e0fe8001e0090009e007800808f5000cf
:1009f000f9ff39000080fa00000006000000fa004c
:100a0000dec2a80011128000001e2000010070004c
:100a10001012880010128000f000b300101288003d
:100a200060002000201288004022ef0010102000fb
:100a300040128800101020006012880011128000ff
:100a4000f03f2f000080600000a0a000101288007e
:100a500010002000c012880000302000d012880052
:100a6000e0c2a800dec2a900e0c2a9001000200078
:100a7000d4ff0700e0c2a80041e2a8000000000087
:100a800030128000610060000000e000fcff3200d6
:100a900010002000c012880030412000d0128800d1
:100aa0000000000030128000610060000000e000e3
:100ab000fcff320010002000c0128800a0102000af
:100ac000d012880000000000301280006100600039
:100ad0000000e000fcff320010002000c01288007f
:100ae00070542000d01288000000000030128000f6
:100af000610060000000e000fcff320010002000f8
:100b0000c0128800e0652000d012880000000000bc
:100b100030128000610060000000e000fcff320045
:100b200010002000c0128800c0752000d01288007c
:100b30000000000030128000610060000000e00052
:100b4000fcff320010002000c0128800009020003e
:100b5000d0128800000000003012800061006000a8
:100b60000000e000fcff3200803e200095ff0700ff
:100b70008920a9009120a8000080fa00000006004a
:100b80000200fa00004f78001e00fb0050118800a0
:100b90000000000030118000620060000000e000f2
:100ba000fcff3a000080fa00000006000200fa0094
:100bb000004f780080cab300f1ff07001e407800a4
:100bc000efff07000080fa00000006000400fa00b2
:100bd000100798000000eb00000f780006003700b7
:100be0001e0078009e0090000080400010407800b9
:100bf000eeff07001e0fe8001e0078009e00900028
:100c000000804000104078000004e000f4ff3a004b
:100c10000080fa00000006000200fa00000f7800d1
:100c20000080fa00000006000000fa000080fa00d0
:100c3000000006000000fa008000eb000000eb005e
:100c4000070007000080fa00000006000000fa001c
:100c500020c8b300caff07000080fa0000000600a9
:100c60000400fa00000f78001107980050ccb30080
:100c7000c3ff07001e00780000407800c0ff070097
:100c80001e00900000407800bdff07000080fa00c1
:040c9000000006005a
:020000040000fa
:100c940006080000280000000200000000008d008b
:100ca400273b4b008d67bb0079ff7f00bb798d002c
:100cb400673b4b008d2700000073d800c5b4730058
:100cc400984586000180450086739800c5b473007a
:100cd400d800000004080000020000000200000028
:100ce40017000000000800000400000000000000dd
:040cf40000000000fc
:020000040000fa
:0200000401f009
:04000000f7bf000046
:020000040000fa
:0200000401f009
:04000400ff7f00007a
:020000040000fa
:0200000401f009
:04000800ffff0000f6
:020000040000fa
:0200000401f009
:04001400ffff0000ea
:020000040000fa
:0200000401f009
:04001800ffff0000e6
:00000001FF
